{"abi":[{"type":"constructor","inputs":[{"name":"_seller","type":"address","internalType":"address"},{"name":"_nft","type":"address","internalType":"address"},{"name":"_nftId","type":"uint256","internalType":"uint256"},{"name":"_duration","type":"uint256","internalType":"uint256"},{"name":"_minBidIncrement","type":"uint256","internalType":"uint256"}],"stateMutability":"nonpayable"},{"type":"fallback","stateMutability":"payable"},{"type":"receive","stateMutability":"payable"},{"type":"function","name":"bid","inputs":[],"outputs":[],"stateMutability":"payable"},{"type":"function","name":"cancelAuction","inputs":[],"outputs":[],"stateMutability":"nonpayable"},{"type":"function","name":"end","inputs":[],"outputs":[],"stateMutability":"payable"},{"type":"function","name":"endAt","inputs":[],"outputs":[{"name":"","type":"uint256","internalType":"uint256"}],"stateMutability":"view"},{"type":"function","name":"highestBid","inputs":[],"outputs":[{"name":"","type":"uint256","internalType":"uint256"}],"stateMutability":"view"},{"type":"function","name":"highestBidder","inputs":[],"outputs":[{"name":"","type":"address","internalType":"address"}],"stateMutability":"view"},{"type":"function","name":"isEnded","inputs":[],"outputs":[{"name":"","type":"bool","internalType":"bool"}],"stateMutability":"view"},{"type":"function","name":"isStarted","inputs":[],"outputs":[{"name":"","type":"bool","internalType":"bool"}],"stateMutability":"view"},{"type":"function","name":"onERC721Received","inputs":[{"name":"","type":"address","internalType":"address"},{"name":"","type":"address","internalType":"address"},{"name":"","type":"uint256","internalType":"uint256"},{"name":"","type":"bytes","internalType":"bytes"}],"outputs":[{"name":"","type":"bytes4","internalType":"bytes4"}],"stateMutability":"pure"},{"type":"function","name":"owner","inputs":[],"outputs":[{"name":"","type":"address","internalType":"address"}],"stateMutability":"view"},{"type":"function","name":"renounceOwnership","inputs":[],"outputs":[],"stateMutability":"nonpayable"},{"type":"function","name":"start","inputs":[],"outputs":[],"stateMutability":"nonpayable"},{"type":"function","name":"transferOwnership","inputs":[{"name":"newOwner","type":"address","internalType":"address"}],"outputs":[],"stateMutability":"nonpayable"},{"type":"function","name":"withdraw","inputs":[],"outputs":[],"stateMutability":"nonpayable"},{"type":"event","name":"AuctionCancelled","inputs":[],"anonymous":false},{"type":"event","name":"AuctionCreated","inputs":[{"name":"auctionAddress","type":"address","indexed":true,"internalType":"address"},{"name":"creator","type":"address","indexed":true,"internalType":"address"},{"name":"nft","type":"address","indexed":true,"internalType":"address"},{"name":"tokenId","type":"uint256","indexed":false,"internalType":"uint256"},{"name":"duration","type":"uint256","indexed":false,"internalType":"uint256"},{"name":"minBidIncrement","type":"uint256","indexed":false,"internalType":"uint256"}],"anonymous":false},{"type":"event","name":"AuctionEnded","inputs":[{"name":"winner","type":"address","indexed":true,"internalType":"address"},{"name":"amount","type":"uint256","indexed":false,"internalType":"uint256"}],"anonymous":false},{"type":"event","name":"AuctionExtended","inputs":[{"name":"newEndTime","type":"uint256","indexed":false,"internalType":"uint256"},{"name":"extendedBy","type":"address","indexed":false,"internalType":"address"}],"anonymous":false},{"type":"event","name":"AuctionStarted","inputs":[{"name":"startTime","type":"uint256","indexed":false,"internalType":"uint256"},{"name":"endTime","type":"uint256","indexed":false,"internalType":"uint256"}],"anonymous":false},{"type":"event","name":"BidPlaced","inputs":[{"name":"bidder","type":"address","indexed":true,"internalType":"address"},{"name":"amount","type":"uint256","indexed":false,"internalType":"uint256"}],"anonymous":false},{"type":"event","name":"FundsWithdrawn","inputs":[{"name":"bidder","type":"address","indexed":true,"internalType":"address"},{"name":"amount","type":"uint256","indexed":false,"internalType":"uint256"}],"anonymous":false},{"type":"event","name":"OwnershipTransferred","inputs":[{"name":"previousOwner","type":"address","indexed":true,"internalType":"address"},{"name":"newOwner","type":"address","indexed":true,"internalType":"address"}],"anonymous":false},{"type":"error","name":"AuctionAlreadyEndedError","inputs":[]},{"type":"error","name":"AuctionAlreadyStartedError","inputs":[]},{"type":"error","name":"AuctionEndedError","inputs":[]},{"type":"error","name":"AuctionNotActiveError","inputs":[]},{"type":"error","name":"AuctionNotCancellableError","inputs":[]},{"type":"error","name":"AuctionNotStartedError","inputs":[]},{"type":"error","name":"AuctionTimeNotOverError","inputs":[]},{"type":"error","name":"BidExistsError","inputs":[]},{"type":"error","name":"BidTooLowError","inputs":[]},{"type":"error","name":"DirectTransferNotAllowedError","inputs":[]},{"type":"error","name":"ETHTransferFailedError","inputs":[]},{"type":"error","name":"InvalidDurationError","inputs":[]},{"type":"error","name":"InvalidMinBidIncrementError","inputs":[]},{"type":"error","name":"NoBalanceError","inputs":[]},{"type":"error","name":"NotApprovedForNFTError","inputs":[]},{"type":"error","name":"OwnableInvalidOwner","inputs":[{"name":"owner","type":"address","internalType":"address"}]},{"type":"error","name":"OwnableUnauthorizedAccount","inputs":[{"name":"account","type":"address","internalType":"address"}]},{"type":"error","name":"ReentrancyGuardReentrantCall","inputs":[]},{"type":"error","name":"ZeroAddressError","inputs":[]}],"bytecode":{"object":"0x610100604052348015610010575f5ffd5b50604051611d2d380380611d2d833981810160405281019061003291906103df565b845f73ffffffffffffffffffffffffffffffffffffffff168173ffffffffffffffffffffffffffffffffffffffff16036100a3575f6040517f1e4fbdf700000000000000000000000000000000000000000000000000000000815260040161009a9190610465565b60405180910390fd5b6100b28161028d60201b60201c565b50600180819055505f73ffffffffffffffffffffffffffffffffffffffff168573ffffffffffffffffffffffffffffffffffffffff160361011f576040517f3efa09af00000000000000000000000000000000000000000000000000000000815260040160405180910390fd5b5f73ffffffffffffffffffffffffffffffffffffffff168473ffffffffffffffffffffffffffffffffffffffff1603610184576040517f3efa09af00000000000000000000000000000000000000000000000000000000815260040160405180910390fd5b5f8214806101945750620d2f0082115b156101cb576040517fa922f92c00000000000000000000000000000000000000000000000000000000815260040160405180910390fd5b5f8103610204576040517fce79426800000000000000000000000000000000000000000000000000000000815260040160405180910390fd5b8373ffffffffffffffffffffffffffffffffffffffff1660808173ffffffffffffffffffffffffffffffffffffffff16815250508260a081815250508473ffffffffffffffffffffffffffffffffffffffff1660e08173ffffffffffffffffffffffffffffffffffffffff16815250508160c0818152505080600281905550505050505061047e565b5f5f5f9054906101000a900473ffffffffffffffffffffffffffffffffffffffff169050815f5f6101000a81548173ffffffffffffffffffffffffffffffffffffffff021916908373ffffffffffffffffffffffffffffffffffffffff1602179055508173ffffffffffffffffffffffffffffffffffffffff168173ffffffffffffffffffffffffffffffffffffffff167f8be0079c531659141344cd1fd0a4f28419497f9722a3daafe3b4186f6b6457e060405160405180910390a35050565b5f5ffd5b5f73ffffffffffffffffffffffffffffffffffffffff82169050919050565b5f61037b82610352565b9050919050565b61038b81610371565b8114610395575f5ffd5b50565b5f815190506103a681610382565b92915050565b5f819050919050565b6103be816103ac565b81146103c8575f5ffd5b50565b5f815190506103d9816103b5565b92915050565b5f5f5f5f5f60a086880312156103f8576103f761034e565b5b5f61040588828901610398565b955050602061041688828901610398565b9450506040610427888289016103cb565b9350506060610438888289016103cb565b9250506080610449888289016103cb565b9150509295509295909350565b61045f81610371565b82525050565b5f6020820190506104785f830184610456565b92915050565b60805160a05160c05160e05161182f6104fe5f395f81816108ab01528181610bf201528181610ee90152610f5201525f610b8401525f81816108cc01528181610a8d01528181610c1401528181610e7a0152610f7301525f818161086e01528181610a5101528181610bb601528181610e3c0152610f15015261182f5ff3fe6080604052600436106100e0575f3560e01c80638fa8b7901161007e578063be9a655511610058578063be9a6555146102a3578063d57bde79146102b9578063efbe1c1c146102e3578063f2fde38b146102ed57610117565b80638fa8b7901461023957806391f901571461024f578063a4fd6f561461027957610117565b8063544736e6116100ba578063544736e6146101a5578063715018a6146101cf5780637cc3ae8c146101e55780638da5cb5b1461020f57610117565b8063150b7a02146101495780631998aeef146101855780633ccfd60b1461018f57610117565b36610117576040517f13d4aa3500000000000000000000000000000000000000000000000000000000815260040160405180910390fd5b6040517f13d4aa3500000000000000000000000000000000000000000000000000000000815260040160405180910390fd5b348015610154575f5ffd5b5061016f600480360381019061016a91906113ec565b610315565b60405161017c91906114aa565b60405180910390f35b61018d610329565b005b34801561019a575f5ffd5b506101a36105a4565b005b3480156101b0575f5ffd5b506101b96106cb565b6040516101c691906114dd565b60405180910390f35b3480156101da575f5ffd5b506101e3610707565b005b3480156101f0575f5ffd5b506101f961071a565b6040516102069190611505565b60405180910390f35b34801561021a575f5ffd5b50610223610720565b604051610230919061152d565b60405180910390f35b348015610244575f5ffd5b5061024d610747565b005b34801561025a575f5ffd5b50610263610964565b604051610270919061152d565b60405180910390f35b348015610284575f5ffd5b5061028d61098a565b60405161029a91906114dd565b60405180910390f35b3480156102ae575f5ffd5b506102b76109c5565b005b3480156102c4575f5ffd5b506102cd610cbc565b6040516102da9190611505565b60405180910390f35b6102eb610cc2565b005b3480156102f8575f5ffd5b50610313600480360381019061030e9190611546565b611030565b005b5f63150b7a0260e01b905095945050505050565b6103316106cb565b610367576040517fd51b6f6700000000000000000000000000000000000000000000000000000000815260040160405180910390fd5b5f4290505f60035490505f600560019054906101000a900473ffffffffffffffffffffffffffffffffffffffff1690505f60045490505f60025490508385106103dc576040517f967574c100000000000000000000000000000000000000000000000000000000815260040160405180910390fd5b80826103e8919061159e565b341015610421576040517fa88b526400000000000000000000000000000000000000000000000000000000815260040160405180910390fd5b5f858561042e91906115d1565b905061012c811161047f57607885016003819055507f6ce4e78dab42807c6ca96eb9e9c4731e7d39cc96649dfc202ecc50b328dbaa9560035433604051610476929190611604565b60405180910390a15b5f73ffffffffffffffffffffffffffffffffffffffff168473ffffffffffffffffffffffffffffffffffffffff1614610506578260065f8673ffffffffffffffffffffffffffffffffffffffff1673ffffffffffffffffffffffffffffffffffffffff1681526020019081526020015f205f8282546104fe919061159e565b925050819055505b3460048190555033600560016101000a81548173ffffffffffffffffffffffffffffffffffffffff021916908373ffffffffffffffffffffffffffffffffffffffff1602179055503373ffffffffffffffffffffffffffffffffffffffff167f3fabff0a9c3ecd6814702e247fa9733e5d0aa69e3a38590f92cb18f623a2254d346040516105949190611505565b60405180910390a2505050505050565b6105ac6110b4565b5f60065f3373ffffffffffffffffffffffffffffffffffffffff1673ffffffffffffffffffffffffffffffffffffffff1681526020019081526020015f205490505f8103610626576040517f1d0891c100000000000000000000000000000000000000000000000000000000815260040160405180910390fd5b5f60065f3373ffffffffffffffffffffffffffffffffffffffff1673ffffffffffffffffffffffffffffffffffffffff1681526020019081526020015f208190555061067233826110fa565b3373ffffffffffffffffffffffffffffffffffffffff167feaff4b37086828766ad3268786972c0cd24259d4c87a80f9d3963a3c3d999b0d826040516106b89190611505565b60405180910390a2506106c961119e565b565b5f600160028111156106e0576106df61162b565b5b60055f9054906101000a900460ff1660028111156107015761070061162b565b5b14905090565b61070f6111a7565b6107185f61122e565b565b60035481565b5f5f5f9054906101000a900473ffffffffffffffffffffffffffffffffffffffff16905090565b61074f6111a7565b600160028111156107635761076261162b565b5b60055f9054906101000a900460ff1660028111156107845761078361162b565b5b146107bb576040517f2f8b6cc300000000000000000000000000000000000000000000000000000000815260040160405180910390fd5b5f73ffffffffffffffffffffffffffffffffffffffff16600560019054906101000a900473ffffffffffffffffffffffffffffffffffffffff1673ffffffffffffffffffffffffffffffffffffffff1614610842576040517fe6f4955e00000000000000000000000000000000000000000000000000000000815260040160405180910390fd5b600260055f6101000a81548160ff021916908360028111156108675761086661162b565b5b02179055507f000000000000000000000000000000000000000000000000000000000000000073ffffffffffffffffffffffffffffffffffffffff166342842e0e307f00000000000000000000000000000000000000000000000000000000000000007f00000000000000000000000000000000000000000000000000000000000000006040518463ffffffff1660e01b8152600401610909939291906116b3565b5f604051808303815f87803b158015610920575f5ffd5b505af1158015610932573d5f5f3e3d5ffd5b505050507fa5fb31e47bd1eca58bf14a3312d5e6aeafdc4ee787c8ed348c15c2b092324d9360405160405180910390a1565b600560019054906101000a900473ffffffffffffffffffffffffffffffffffffffff1681565b5f60028081111561099e5761099d61162b565b5b60055f9054906101000a900460ff1660028111156109bf576109be61162b565b5b14905090565b6109cd6111a7565b5f60028111156109e0576109df61162b565b5b60055f9054906101000a900460ff166002811115610a0157610a0061162b565b5b14610a38576040517f1847571c00000000000000000000000000000000000000000000000000000000815260040160405180910390fd5b3073ffffffffffffffffffffffffffffffffffffffff167f000000000000000000000000000000000000000000000000000000000000000073ffffffffffffffffffffffffffffffffffffffff1663081812fc7f00000000000000000000000000000000000000000000000000000000000000006040518263ffffffff1660e01b8152600401610ac89190611505565b602060405180830381865afa158015610ae3573d5f5f3e3d5ffd5b505050506040513d601f19601f82011682018060405250810190610b0791906116fc565b73ffffffffffffffffffffffffffffffffffffffff1614610b54576040517fdf844ca600000000000000000000000000000000000000000000000000000000815260040160405180910390fd5b600160055f6101000a81548160ff02191690836002811115610b7957610b7861162b565b5b02179055505f4290507f000000000000000000000000000000000000000000000000000000000000000081610bae919061159e565b6003819055507f000000000000000000000000000000000000000000000000000000000000000073ffffffffffffffffffffffffffffffffffffffff166342842e0e7f0000000000000000000000000000000000000000000000000000000000000000307f00000000000000000000000000000000000000000000000000000000000000006040518463ffffffff1660e01b8152600401610c5193929190611727565b5f604051808303815f87803b158015610c68575f5ffd5b505af1158015610c7a573d5f5f3e3d5ffd5b505050507ff8910119ddbef5440c54532457dfe8250a10ed39e583292818f44724b9e1344c81600354604051610cb192919061175c565b60405180910390a150565b60045481565b610cca6111a7565b60016002811115610cde57610cdd61162b565b5b60055f9054906101000a900460ff166002811115610cff57610cfe61162b565b5b14610d36576040517f8a0f307b00000000000000000000000000000000000000000000000000000000815260040160405180910390fd5b600354421015610d72576040517f3bff590000000000000000000000000000000000000000000000000000000000815260040160405180910390fd5b610d7a61098a565b15610db1576040517f4a68bddf00000000000000000000000000000000000000000000000000000000815260040160405180910390fd5b5f600560019054906101000a900473ffffffffffffffffffffffffffffffffffffffff169050600260055f6101000a81548160ff02191690836002811115610dfc57610dfb61162b565b5b02179055505f60045490505f73ffffffffffffffffffffffffffffffffffffffff168273ffffffffffffffffffffffffffffffffffffffff1614610f13577f000000000000000000000000000000000000000000000000000000000000000073ffffffffffffffffffffffffffffffffffffffff166342842e0e30847f00000000000000000000000000000000000000000000000000000000000000006040518463ffffffff1660e01b8152600401610eb793929190611783565b5f604051808303815f87803b158015610ece575f5ffd5b505af1158015610ee0573d5f5f3e3d5ffd5b50505050610f0e7f0000000000000000000000000000000000000000000000000000000000000000826110fa565b610fde565b7f000000000000000000000000000000000000000000000000000000000000000073ffffffffffffffffffffffffffffffffffffffff166342842e0e307f00000000000000000000000000000000000000000000000000000000000000007f00000000000000000000000000000000000000000000000000000000000000006040518463ffffffff1660e01b8152600401610fb0939291906116b3565b5f604051808303815f87803b158015610fc7575f5ffd5b505af1158015610fd9573d5f5f3e3d5ffd5b505050505b8173ffffffffffffffffffffffffffffffffffffffff167fdaec4582d5d9595688c8c98545fdd1c696d41c6aeaeb636737e84ed2f5c00eda826040516110249190611505565b60405180910390a25050565b6110386111a7565b5f73ffffffffffffffffffffffffffffffffffffffff168173ffffffffffffffffffffffffffffffffffffffff16036110a8575f6040517f1e4fbdf700000000000000000000000000000000000000000000000000000000815260040161109f919061152d565b60405180910390fd5b6110b18161122e565b50565b6002600154036110f0576040517f3ee5aeb500000000000000000000000000000000000000000000000000000000815260040160405180910390fd5b6002600181905550565b5f8273ffffffffffffffffffffffffffffffffffffffff168260405161111f906117e5565b5f6040518083038185875af1925050503d805f8114611159576040519150601f19603f3d011682016040523d82523d5f602084013e61115e565b606091505b5050905080611199576040517f74b809df00000000000000000000000000000000000000000000000000000000815260040160405180910390fd5b505050565b60018081905550565b6111af6112ef565b73ffffffffffffffffffffffffffffffffffffffff166111cd610720565b73ffffffffffffffffffffffffffffffffffffffff161461122c576111f06112ef565b6040517f118cdaa7000000000000000000000000000000000000000000000000000000008152600401611223919061152d565b60405180910390fd5b565b5f5f5f9054906101000a900473ffffffffffffffffffffffffffffffffffffffff169050815f5f6101000a81548173ffffffffffffffffffffffffffffffffffffffff021916908373ffffffffffffffffffffffffffffffffffffffff1602179055508173ffffffffffffffffffffffffffffffffffffffff168173ffffffffffffffffffffffffffffffffffffffff167f8be0079c531659141344cd1fd0a4f28419497f9722a3daafe3b4186f6b6457e060405160405180910390a35050565b5f33905090565b5f5ffd5b5f5ffd5b5f73ffffffffffffffffffffffffffffffffffffffff82169050919050565b5f611327826112fe565b9050919050565b6113378161131d565b8114611341575f5ffd5b50565b5f813590506113528161132e565b92915050565b5f819050919050565b61136a81611358565b8114611374575f5ffd5b50565b5f8135905061138581611361565b92915050565b5f5ffd5b5f5ffd5b5f5ffd5b5f5f83601f8401126113ac576113ab61138b565b5b8235905067ffffffffffffffff8111156113c9576113c861138f565b5b6020830191508360018202830111156113e5576113e4611393565b5b9250929050565b5f5f5f5f5f60808688031215611405576114046112f6565b5b5f61141288828901611344565b955050602061142388828901611344565b945050604061143488828901611377565b935050606086013567ffffffffffffffff811115611455576114546112fa565b5b61146188828901611397565b92509250509295509295909350565b5f7fffffffff0000000000000000000000000000000000000000000000000000000082169050919050565b6114a481611470565b82525050565b5f6020820190506114bd5f83018461149b565b92915050565b5f8115159050919050565b6114d7816114c3565b82525050565b5f6020820190506114f05f8301846114ce565b92915050565b6114ff81611358565b82525050565b5f6020820190506115185f8301846114f6565b92915050565b6115278161131d565b82525050565b5f6020820190506115405f83018461151e565b92915050565b5f6020828403121561155b5761155a6112f6565b5b5f61156884828501611344565b91505092915050565b7f4e487b71000000000000000000000000000000000000000000000000000000005f52601160045260245ffd5b5f6115a882611358565b91506115b383611358565b92508282019050808211156115cb576115ca611571565b5b92915050565b5f6115db82611358565b91506115e683611358565b92508282039050818111156115fe576115fd611571565b5b92915050565b5f6040820190506116175f8301856114f6565b611624602083018461151e565b9392505050565b7f4e487b71000000000000000000000000000000000000000000000000000000005f52602160045260245ffd5b5f819050919050565b5f61167b611676611671846112fe565b611658565b6112fe565b9050919050565b5f61168c82611661565b9050919050565b5f61169d82611682565b9050919050565b6116ad81611693565b82525050565b5f6060820190506116c65f83018661151e565b6116d360208301856116a4565b6116e060408301846114f6565b949350505050565b5f815190506116f68161132e565b92915050565b5f60208284031215611711576117106112f6565b5b5f61171e848285016116e8565b91505092915050565b5f60608201905061173a5f8301866116a4565b611747602083018561151e565b61175460408301846114f6565b949350505050565b5f60408201905061176f5f8301856114f6565b61177c60208301846114f6565b9392505050565b5f6060820190506117965f83018661151e565b6117a3602083018561151e565b6117b060408301846114f6565b949350505050565b5f81905092915050565b50565b5f6117d05f836117b8565b91506117db826117c2565b5f82019050919050565b5f6117ef826117c5565b915081905091905056fea2646970667358221220173222566689cc5a9350c64e22c6c4b37ced53b8e5d030e930a422fbf0565e1964736f6c634300081e0033","linkReferences":{}},"methodIdentifiers":{"bid()":"1998aeef","cancelAuction()":"8fa8b790","end()":"efbe1c1c","endAt()":"7cc3ae8c","highestBid()":"d57bde79","highestBidder()":"91f90157","isEnded()":"a4fd6f56","isStarted()":"544736e6","onERC721Received(address,address,uint256,bytes)":"150b7a02","owner()":"8da5cb5b","renounceOwnership()":"715018a6","start()":"be9a6555","transferOwnership(address)":"f2fde38b","withdraw()":"3ccfd60b"},"id":0}