{"abi":[{"type":"constructor","inputs":[{"name":"_name","type":"string","internalType":"string"},{"name":"_symbol","type":"string","internalType":"string"},{"name":"_initialBaseURI","type":"string","internalType":"string"},{"name":"_initialPrice","type":"uint256","internalType":"uint256"},{"name":"_maxSupply","type":"uint256","internalType":"uint256"}],"stateMutability":"nonpayable"},{"type":"fallback","stateMutability":"payable"},{"type":"receive","stateMutability":"payable"},{"type":"function","name":"DEFAULT_ADMIN_ROLE","inputs":[],"outputs":[{"name":"","type":"bytes32","internalType":"bytes32"}],"stateMutability":"view"},{"type":"function","name":"WHITELISTED_ROLE","inputs":[],"outputs":[{"name":"","type":"bytes32","internalType":"bytes32"}],"stateMutability":"view"},{"type":"function","name":"addWhitelistedUser","inputs":[{"name":"_user","type":"address","internalType":"address"}],"outputs":[],"stateMutability":"nonpayable"},{"type":"function","name":"approve","inputs":[{"name":"to","type":"address","internalType":"address"},{"name":"tokenId","type":"uint256","internalType":"uint256"}],"outputs":[],"stateMutability":"nonpayable"},{"type":"function","name":"balanceOf","inputs":[{"name":"owner","type":"address","internalType":"address"}],"outputs":[{"name":"","type":"uint256","internalType":"uint256"}],"stateMutability":"view"},{"type":"function","name":"burn","inputs":[{"name":"_tokenId","type":"uint256","internalType":"uint256"}],"outputs":[],"stateMutability":"nonpayable"},{"type":"function","name":"getApproved","inputs":[{"name":"tokenId","type":"uint256","internalType":"uint256"}],"outputs":[{"name":"","type":"address","internalType":"address"}],"stateMutability":"view"},{"type":"function","name":"getRoleAdmin","inputs":[{"name":"role","type":"bytes32","internalType":"bytes32"}],"outputs":[{"name":"","type":"bytes32","internalType":"bytes32"}],"stateMutability":"view"},{"type":"function","name":"grantRole","inputs":[{"name":"role","type":"bytes32","internalType":"bytes32"},{"name":"account","type":"address","internalType":"address"}],"outputs":[],"stateMutability":"nonpayable"},{"type":"function","name":"hasRole","inputs":[{"name":"role","type":"bytes32","internalType":"bytes32"},{"name":"account","type":"address","internalType":"address"}],"outputs":[{"name":"","type":"bool","internalType":"bool"}],"stateMutability":"view"},{"type":"function","name":"isApprovedForAll","inputs":[{"name":"owner","type":"address","internalType":"address"},{"name":"operator","type":"address","internalType":"address"}],"outputs":[{"name":"","type":"bool","internalType":"bool"}],"stateMutability":"view"},{"type":"function","name":"mint","inputs":[{"name":"_to","type":"address","internalType":"address"}],"outputs":[],"stateMutability":"payable"},{"type":"function","name":"mintedCount","inputs":[],"outputs":[{"name":"","type":"uint256","internalType":"uint256"}],"stateMutability":"view"},{"type":"function","name":"name","inputs":[],"outputs":[{"name":"","type":"string","internalType":"string"}],"stateMutability":"view"},{"type":"function","name":"owner","inputs":[],"outputs":[{"name":"","type":"address","internalType":"address"}],"stateMutability":"view"},{"type":"function","name":"ownerOf","inputs":[{"name":"tokenId","type":"uint256","internalType":"uint256"}],"outputs":[{"name":"","type":"address","internalType":"address"}],"stateMutability":"view"},{"type":"function","name":"removeWhitelistedUser","inputs":[{"name":"_user","type":"address","internalType":"address"}],"outputs":[],"stateMutability":"nonpayable"},{"type":"function","name":"renounceOwnership","inputs":[],"outputs":[],"stateMutability":"nonpayable"},{"type":"function","name":"renounceRole","inputs":[{"name":"role","type":"bytes32","internalType":"bytes32"},{"name":"callerConfirmation","type":"address","internalType":"address"}],"outputs":[],"stateMutability":"nonpayable"},{"type":"function","name":"revokeRole","inputs":[{"name":"role","type":"bytes32","internalType":"bytes32"},{"name":"account","type":"address","internalType":"address"}],"outputs":[],"stateMutability":"nonpayable"},{"type":"function","name":"safeTransferFrom","inputs":[{"name":"from","type":"address","internalType":"address"},{"name":"to","type":"address","internalType":"address"},{"name":"tokenId","type":"uint256","internalType":"uint256"}],"outputs":[],"stateMutability":"nonpayable"},{"type":"function","name":"safeTransferFrom","inputs":[{"name":"from","type":"address","internalType":"address"},{"name":"to","type":"address","internalType":"address"},{"name":"tokenId","type":"uint256","internalType":"uint256"},{"name":"data","type":"bytes","internalType":"bytes"}],"outputs":[],"stateMutability":"nonpayable"},{"type":"function","name":"setApprovalForAll","inputs":[{"name":"operator","type":"address","internalType":"address"},{"name":"approved","type":"bool","internalType":"bool"}],"outputs":[],"stateMutability":"nonpayable"},{"type":"function","name":"setBaseURI","inputs":[{"name":"newBaseURI","type":"string","internalType":"string"}],"outputs":[],"stateMutability":"nonpayable"},{"type":"function","name":"setPrice","inputs":[{"name":"_newPrice","type":"uint256","internalType":"uint256"}],"outputs":[],"stateMutability":"nonpayable"},{"type":"function","name":"setSalePhase","inputs":[{"name":"_phase","type":"uint8","internalType":"uint8"}],"outputs":[],"stateMutability":"nonpayable"},{"type":"function","name":"supportsInterface","inputs":[{"name":"interfaceId","type":"bytes4","internalType":"bytes4"}],"outputs":[{"name":"","type":"bool","internalType":"bool"}],"stateMutability":"view"},{"type":"function","name":"symbol","inputs":[],"outputs":[{"name":"","type":"string","internalType":"string"}],"stateMutability":"view"},{"type":"function","name":"tokenURI","inputs":[{"name":"tokenId","type":"uint256","internalType":"uint256"}],"outputs":[{"name":"","type":"string","internalType":"string"}],"stateMutability":"view"},{"type":"function","name":"transferFrom","inputs":[{"name":"from","type":"address","internalType":"address"},{"name":"to","type":"address","internalType":"address"},{"name":"tokenId","type":"uint256","internalType":"uint256"}],"outputs":[],"stateMutability":"nonpayable"},{"type":"function","name":"transferOwnership","inputs":[{"name":"newOwner","type":"address","internalType":"address"}],"outputs":[],"stateMutability":"nonpayable"},{"type":"function","name":"withdraw","inputs":[],"outputs":[],"stateMutability":"nonpayable"},{"type":"event","name":"Approval","inputs":[{"name":"owner","type":"address","indexed":true,"internalType":"address"},{"name":"approved","type":"address","indexed":true,"internalType":"address"},{"name":"tokenId","type":"uint256","indexed":true,"internalType":"uint256"}],"anonymous":false},{"type":"event","name":"ApprovalForAll","inputs":[{"name":"owner","type":"address","indexed":true,"internalType":"address"},{"name":"operator","type":"address","indexed":true,"internalType":"address"},{"name":"approved","type":"bool","indexed":false,"internalType":"bool"}],"anonymous":false},{"type":"event","name":"BaseURIUpdated","inputs":[{"name":"oldURI","type":"string","indexed":false,"internalType":"string"},{"name":"newURI","type":"string","indexed":false,"internalType":"string"}],"anonymous":false},{"type":"event","name":"FundsWithdrawn","inputs":[{"name":"amount","type":"uint256","indexed":false,"internalType":"uint256"}],"anonymous":false},{"type":"event","name":"OwnershipTransferred","inputs":[{"name":"previousOwner","type":"address","indexed":true,"internalType":"address"},{"name":"newOwner","type":"address","indexed":true,"internalType":"address"}],"anonymous":false},{"type":"event","name":"PriceUpdated","inputs":[{"name":"oldPrice","type":"uint256","indexed":false,"internalType":"uint256"},{"name":"newPrice","type":"uint256","indexed":false,"internalType":"uint256"}],"anonymous":false},{"type":"event","name":"RoleAdminChanged","inputs":[{"name":"role","type":"bytes32","indexed":true,"internalType":"bytes32"},{"name":"previousAdminRole","type":"bytes32","indexed":true,"internalType":"bytes32"},{"name":"newAdminRole","type":"bytes32","indexed":true,"internalType":"bytes32"}],"anonymous":false},{"type":"event","name":"RoleGranted","inputs":[{"name":"role","type":"bytes32","indexed":true,"internalType":"bytes32"},{"name":"account","type":"address","indexed":true,"internalType":"address"},{"name":"sender","type":"address","indexed":true,"internalType":"address"}],"anonymous":false},{"type":"event","name":"RoleRevoked","inputs":[{"name":"role","type":"bytes32","indexed":true,"internalType":"bytes32"},{"name":"account","type":"address","indexed":true,"internalType":"address"},{"name":"sender","type":"address","indexed":true,"internalType":"address"}],"anonymous":false},{"type":"event","name":"SalePhaseUpdated","inputs":[{"name":"oldPhase","type":"uint8","indexed":false,"internalType":"enum ZurcusNFT.SalePhase"},{"name":"newPhase","type":"uint8","indexed":false,"internalType":"enum ZurcusNFT.SalePhase"}],"anonymous":false},{"type":"event","name":"Transfer","inputs":[{"name":"from","type":"address","indexed":true,"internalType":"address"},{"name":"to","type":"address","indexed":true,"internalType":"address"},{"name":"tokenId","type":"uint256","indexed":true,"internalType":"uint256"}],"anonymous":false},{"type":"event","name":"WhitelistedUserAdded","inputs":[{"name":"user","type":"address","indexed":true,"internalType":"address"}],"anonymous":false},{"type":"error","name":"AccessControlBadConfirmation","inputs":[]},{"type":"error","name":"AccessControlUnauthorizedAccount","inputs":[{"name":"account","type":"address","internalType":"address"},{"name":"neededRole","type":"bytes32","internalType":"bytes32"}]},{"type":"error","name":"DirectTransferNotAllowed","inputs":[]},{"type":"error","name":"ERC721IncorrectOwner","inputs":[{"name":"sender","type":"address","internalType":"address"},{"name":"tokenId","type":"uint256","internalType":"uint256"},{"name":"owner","type":"address","internalType":"address"}]},{"type":"error","name":"ERC721InsufficientApproval","inputs":[{"name":"operator","type":"address","internalType":"address"},{"name":"tokenId","type":"uint256","internalType":"uint256"}]},{"type":"error","name":"ERC721InvalidApprover","inputs":[{"name":"approver","type":"address","internalType":"address"}]},{"type":"error","name":"ERC721InvalidOperator","inputs":[{"name":"operator","type":"address","internalType":"address"}]},{"type":"error","name":"ERC721InvalidOwner","inputs":[{"name":"owner","type":"address","internalType":"address"}]},{"type":"error","name":"ERC721InvalidReceiver","inputs":[{"name":"receiver","type":"address","internalType":"address"}]},{"type":"error","name":"ERC721InvalidSender","inputs":[{"name":"sender","type":"address","internalType":"address"}]},{"type":"error","name":"ERC721NonexistentToken","inputs":[{"name":"tokenId","type":"uint256","internalType":"uint256"}]},{"type":"error","name":"EmptyBaseURIError","inputs":[]},{"type":"error","name":"EmptyNameError","inputs":[]},{"type":"error","name":"EmptySymbolError","inputs":[]},{"type":"error","name":"ExceedsMaxSupplyError","inputs":[]},{"type":"error","name":"IncorrectPaymentError","inputs":[]},{"type":"error","name":"InvalidAddressError","inputs":[]},{"type":"error","name":"InvalidMaxSupplyError","inputs":[]},{"type":"error","name":"InvalidPhaseError","inputs":[]},{"type":"error","name":"OwnableInvalidOwner","inputs":[{"name":"owner","type":"address","internalType":"address"}]},{"type":"error","name":"OwnableUnauthorizedAccount","inputs":[{"name":"account","type":"address","internalType":"address"}]},{"type":"error","name":"ReentrancyGuardReentrantCall","inputs":[]},{"type":"error","name":"SenderNotWhitelistedError","inputs":[]},{"type":"error","name":"UserAlreadyWhitelistedError","inputs":[]},{"type":"error","name":"WithdrawFailedError","inputs":[]}],"bytecode":{"object":"0x60a060405234801561000f575f5ffd5b50604051613fa3380380613fa3833981810160405281019061003191906105fe565b338585815f908161004291906108d0565b50806001908161005291906108d0565b5050505f73ffffffffffffffffffffffffffffffffffffffff168173ffffffffffffffffffffffffffffffffffffffff16036100c5575f6040517f1e4fbdf70000000000000000000000000000000000000000000000000000000081526004016100bc91906109de565b60405180910390fd5b6100d48161025a60201b60201c565b5060016008819055505f855103610117576040517f3f539dac00000000000000000000000000000000000000000000000000000000815260040160405180910390fd5b5f845103610151576040517f6199cbae00000000000000000000000000000000000000000000000000000000815260040160405180910390fd5b5f83510361018b576040517fe71bf82a00000000000000000000000000000000000000000000000000000000815260040160405180910390fd5b5f81036101c4576040517fec88b40e00000000000000000000000000000000000000000000000000000000815260040160405180910390fd5b6101d65f5f1b3361031d60201b60201c565b506102077fe799c73ff785ac053943f5d98452f7fa0bcf54da67826fc217d6094dec75c5ee3361031d60201b60201c565b505f60095f6101000a81548160ff0219169083600181111561022c5761022b6109f7565b5b021790555081600a8190555082600c908161024791906108d0565b5080608081815250505050505050610a24565b5f60065f9054906101000a900473ffffffffffffffffffffffffffffffffffffffff1690508160065f6101000a81548173ffffffffffffffffffffffffffffffffffffffff021916908373ffffffffffffffffffffffffffffffffffffffff1602179055508173ffffffffffffffffffffffffffffffffffffffff168173ffffffffffffffffffffffffffffffffffffffff167f8be0079c531659141344cd1fd0a4f28419497f9722a3daafe3b4186f6b6457e060405160405180910390a35050565b5f61032e838361041360201b60201c565b61040957600160075f8581526020019081526020015f205f015f8473ffffffffffffffffffffffffffffffffffffffff1673ffffffffffffffffffffffffffffffffffffffff1681526020019081526020015f205f6101000a81548160ff0219169083151502179055506103a661047760201b60201c565b73ffffffffffffffffffffffffffffffffffffffff168273ffffffffffffffffffffffffffffffffffffffff16847f2f8788117e7eff1d82e926ec794901d17c78024a50270940304540a733656f0d60405160405180910390a46001905061040d565b5f90505b92915050565b5f60075f8481526020019081526020015f205f015f8373ffffffffffffffffffffffffffffffffffffffff1673ffffffffffffffffffffffffffffffffffffffff1681526020019081526020015f205f9054906101000a900460ff16905092915050565b5f33905090565b5f604051905090565b5f5ffd5b5f5ffd5b5f5ffd5b5f5ffd5b5f601f19601f8301169050919050565b7f4e487b71000000000000000000000000000000000000000000000000000000005f52604160045260245ffd5b6104dd82610497565b810181811067ffffffffffffffff821117156104fc576104fb6104a7565b5b80604052505050565b5f61050e61047e565b905061051a82826104d4565b919050565b5f67ffffffffffffffff821115610539576105386104a7565b5b61054282610497565b9050602081019050919050565b8281835e5f83830152505050565b5f61056f61056a8461051f565b610505565b90508281526020810184848401111561058b5761058a610493565b5b61059684828561054f565b509392505050565b5f82601f8301126105b2576105b161048f565b5b81516105c284826020860161055d565b91505092915050565b5f819050919050565b6105dd816105cb565b81146105e7575f5ffd5b50565b5f815190506105f8816105d4565b92915050565b5f5f5f5f5f60a0868803121561061757610616610487565b5b5f86015167ffffffffffffffff8111156106345761063361048b565b5b6106408882890161059e565b955050602086015167ffffffffffffffff8111156106615761066061048b565b5b61066d8882890161059e565b945050604086015167ffffffffffffffff81111561068e5761068d61048b565b5b61069a8882890161059e565b93505060606106ab888289016105ea565b92505060806106bc888289016105ea565b9150509295509295909350565b5f81519050919050565b7f4e487b71000000000000000000000000000000000000000000000000000000005f52602260045260245ffd5b5f600282049050600182168061071757607f821691505b60208210810361072a576107296106d3565b5b50919050565b5f819050815f5260205f209050919050565b5f6020601f8301049050919050565b5f82821b905092915050565b5f6008830261078c7fffffffffffffffffffffffffffffffffffffffffffffffffffffffffffffffff82610751565b6107968683610751565b95508019841693508086168417925050509392505050565b5f819050919050565b5f6107d16107cc6107c7846105cb565b6107ae565b6105cb565b9050919050565b5f819050919050565b6107ea836107b7565b6107fe6107f6826107d8565b84845461075d565b825550505050565b5f5f905090565b610815610806565b6108208184846107e1565b505050565b5b81811015610843576108385f8261080d565b600181019050610826565b5050565b601f8211156108885761085981610730565b61086284610742565b81016020851015610871578190505b61088561087d85610742565b830182610825565b50505b505050565b5f82821c905092915050565b5f6108a85f198460080261088d565b1980831691505092915050565b5f6108c08383610899565b9150826002028217905092915050565b6108d9826106c9565b67ffffffffffffffff8111156108f2576108f16104a7565b5b6108fc8254610700565b610907828285610847565b5f60209050601f831160018114610938575f8415610926578287015190505b61093085826108b5565b865550610997565b601f19841661094686610730565b5f5b8281101561096d57848901518255600182019150602085019450602081019050610948565b8683101561098a5784890151610986601f891682610899565b8355505b6001600288020188555050505b505050505050565b5f73ffffffffffffffffffffffffffffffffffffffff82169050919050565b5f6109c88261099f565b9050919050565b6109d8816109be565b82525050565b5f6020820190506109f15f8301846109cf565b92915050565b7f4e487b71000000000000000000000000000000000000000000000000000000005f52602160045260245ffd5b608051613567610a3c5f395f610d9801526135675ff3fe6080604052600436106101e6575f3560e01c80637a3226ec11610101578063b231e25d11610094578063cf721b1511610063578063cf721b1514610715578063d547741f1461073f578063e985e9c514610767578063f2fde38b146107a35761021d565b8063b231e25d14610661578063b7b1b8e914610689578063b88d4fde146106b1578063c87b56dd146106d95761021d565b806391d14854116100d057806391d14854146105a957806395d89b41146105e5578063a217fddf1461060f578063a22cb465146106395761021d565b80637a3226ec146105055780637ad594311461052f5780638da5cb5b1461055757806391b7f5ed146105815761021d565b80633ccfd60b116101795780636352211e116101485780636352211e1461045b5780636a6278421461049757806370a08231146104b3578063715018a6146104ef5761021d565b80633ccfd60b146103cd57806342842e0e146103e357806342966c681461040b57806355f804b3146104335761021d565b806323b872dd116101b557806323b872dd14610319578063248a9ca3146103415780632f2ff15d1461037d57806336568abe146103a55761021d565b806301ffc9a71461024f57806306fdde031461028b578063081812fc146102b5578063095ea7b3146102f15761021d565b3661021d576040517f3ee6509d00000000000000000000000000000000000000000000000000000000815260040160405180910390fd5b6040517f3ee6509d00000000000000000000000000000000000000000000000000000000815260040160405180910390fd5b34801561025a575f5ffd5b506102756004803603810190610270919061283b565b6107cb565b6040516102829190612880565b60405180910390f35b348015610296575f5ffd5b5061029f6107dc565b6040516102ac9190612909565b60405180910390f35b3480156102c0575f5ffd5b506102db60048036038101906102d6919061295c565b61086b565b6040516102e891906129c6565b60405180910390f35b3480156102fc575f5ffd5b5061031760048036038101906103129190612a09565b610886565b005b348015610324575f5ffd5b5061033f600480360381019061033a9190612a47565b61089c565b005b34801561034c575f5ffd5b5061036760048036038101906103629190612aca565b61099b565b6040516103749190612b04565b60405180910390f35b348015610388575f5ffd5b506103a3600480360381019061039e9190612b1d565b6109b8565b005b3480156103b0575f5ffd5b506103cb60048036038101906103c69190612b1d565b6109da565b005b3480156103d8575f5ffd5b506103e1610a55565b005b3480156103ee575f5ffd5b5061040960048036038101906104049190612a47565b610b57565b005b348015610416575f5ffd5b50610431600480360381019061042c919061295c565b610b76565b005b34801561043e575f5ffd5b5061045960048036038101906104549190612c87565b610bf8565b005b348015610466575f5ffd5b50610481600480360381019061047c919061295c565b610cd9565b60405161048e91906129c6565b60405180910390f35b6104b160048036038101906104ac9190612cce565b610cea565b005b3480156104be575f5ffd5b506104d960048036038101906104d49190612cce565b610e48565b6040516104e69190612d08565b60405180910390f35b3480156104fa575f5ffd5b50610503610efe565b005b348015610510575f5ffd5b50610519610f11565b6040516105269190612b04565b60405180910390f35b34801561053a575f5ffd5b5061055560048036038101906105509190612d57565b610f35565b005b348015610562575f5ffd5b5061056b61102a565b60405161057891906129c6565b60405180910390f35b34801561058c575f5ffd5b506105a760048036038101906105a2919061295c565b611052565b005b3480156105b4575f5ffd5b506105cf60048036038101906105ca9190612b1d565b6110a4565b6040516105dc9190612880565b60405180910390f35b3480156105f0575f5ffd5b506105f9611108565b6040516106069190612909565b60405180910390f35b34801561061a575f5ffd5b50610623611198565b6040516106309190612b04565b60405180910390f35b348015610644575f5ffd5b5061065f600480360381019061065a9190612dac565b61119e565b005b34801561066c575f5ffd5b5061068760048036038101906106829190612cce565b6111b4565b005b348015610694575f5ffd5b506106af60048036038101906106aa9190612cce565b61128e565b005b3480156106bc575f5ffd5b506106d760048036038101906106d29190612e88565b611329565b005b3480156106e4575f5ffd5b506106ff60048036038101906106fa919061295c565b61134e565b60405161070c9190612909565b60405180910390f35b348015610720575f5ffd5b506107296113b4565b6040516107369190612d08565b60405180910390f35b34801561074a575f5ffd5b5061076560048036038101906107609190612b1d565b6113ba565b005b348015610772575f5ffd5b5061078d60048036038101906107889190612f08565b6113dc565b60405161079a9190612880565b60405180910390f35b3480156107ae575f5ffd5b506107c960048036038101906107c49190612cce565b61146a565b005b5f6107d5826114ee565b9050919050565b60605f80546107ea90612f73565b80601f016020809104026020016040519081016040528092919081815260200182805461081690612f73565b80156108615780601f1061083857610100808354040283529160200191610861565b820191905f5260205f20905b81548152906001019060200180831161084457829003601f168201915b5050505050905090565b5f61087582611567565b5061087f826115ed565b9050919050565b6108988282610893611626565b61162d565b5050565b5f73ffffffffffffffffffffffffffffffffffffffff168273ffffffffffffffffffffffffffffffffffffffff160361090c575f6040517f64a0ae9200000000000000000000000000000000000000000000000000000000815260040161090391906129c6565b60405180910390fd5b5f61091f838361091a611626565b61163f565b90508373ffffffffffffffffffffffffffffffffffffffff168173ffffffffffffffffffffffffffffffffffffffff1614610995578382826040517f64283d7b00000000000000000000000000000000000000000000000000000000815260040161098c93929190612fa3565b60405180910390fd5b50505050565b5f60075f8381526020019081526020015f20600101549050919050565b6109c18261099b565b6109ca8161184a565b6109d4838361185e565b50505050565b6109e2611626565b73ffffffffffffffffffffffffffffffffffffffff168173ffffffffffffffffffffffffffffffffffffffff1614610a46576040517f6697b23200000000000000000000000000000000000000000000000000000000815260040160405180910390fd5b610a508282611948565b505050565b610a5d611a32565b610a65611ab9565b5f4790505f610a7261102a565b90505f8173ffffffffffffffffffffffffffffffffffffffff1683604051610a9990613005565b5f6040518083038185875af1925050503d805f8114610ad3576040519150601f19603f3d011682016040523d82523d5f602084013e610ad8565b606091505b5050905080610b13576040517f4659e3f500000000000000000000000000000000000000000000000000000000815260040160405180910390fd5b7f4a37b25aab49761ecf63117fe82b98d750917451133cf797507bc9fb5b96044a83604051610b429190612d08565b60405180910390a1505050610b55611aff565b565b610b7183838360405180602001604052805f815250611329565b505050565b5f610b825f833361163f565b90505f73ffffffffffffffffffffffffffffffffffffffff168173ffffffffffffffffffffffffffffffffffffffff1603610bf457816040517f7e273289000000000000000000000000000000000000000000000000000000008152600401610beb9190612d08565b60405180910390fd5b5050565b610c00611a32565b5f600c8054610c0e90612f73565b80601f0160208091040260200160405190810160405280929190818152602001828054610c3a90612f73565b8015610c855780601f10610c5c57610100808354040283529160200191610c85565b820191905f5260205f20905b815481529060010190602001808311610c6857829003601f168201915b5050505050905081600c9081610c9b91906131b9565b507f309b29ded109b9e28fb9885757b3e0096eb75c51d23aa4635d68bcd569f6adc18183604051610ccd929190613288565b60405180910390a15050565b5f610ce382611567565b9050919050565b5f6001811115610cfd57610cfc6132bd565b5b60095f9054906101000a900460ff166001811115610d1e57610d1d6132bd565b5b148015610d525750610d507fe799c73ff785ac053943f5d98452f7fa0bcf54da67826fc217d6094dec75c5ee336110a4565b155b15610d89576040517f6c6c4c8f00000000000000000000000000000000000000000000000000000000815260040160405180910390fd5b5f600a5490505f600b5490505f7f00000000000000000000000000000000000000000000000000000000000000009050823414610df2576040517f1fd559c500000000000000000000000000000000000000000000000000000000815260040160405180910390fd5b808210610e2b576040517f0b17a17b00000000000000000000000000000000000000000000000000000000815260040160405180910390fd5b60018201915081600b81905550610e428483611b09565b50505050565b5f5f73ffffffffffffffffffffffffffffffffffffffff168273ffffffffffffffffffffffffffffffffffffffff1603610eb9575f6040517f89c62b64000000000000000000000000000000000000000000000000000000008152600401610eb091906129c6565b60405180910390fd5b60035f8373ffffffffffffffffffffffffffffffffffffffff1673ffffffffffffffffffffffffffffffffffffffff1681526020019081526020015f20549050919050565b610f06611a32565b610f0f5f611b26565b565b7fe799c73ff785ac053943f5d98452f7fa0bcf54da67826fc217d6094dec75c5ee81565b610f3d611a32565b600180811115610f5057610f4f6132bd565b5b60ff168160ff161115610f8f576040517f96a34b8e00000000000000000000000000000000000000000000000000000000815260040160405180910390fd5b5f60095f9054906101000a900460ff1690508160ff166001811115610fb757610fb66132bd565b5b60095f6101000a81548160ff02191690836001811115610fda57610fd96132bd565b5b02179055507fef30ae6500eb8668942c43bac5f61b1f8fa6d0758308e1050d896ccfb2123f8e8160095f9054906101000a900460ff1660405161101e929190613330565b60405180910390a15050565b5f60065f9054906101000a900473ffffffffffffffffffffffffffffffffffffffff16905090565b61105a611a32565b5f600a54905081600a819055507f945c1c4e99aa89f648fbfe3df471b916f719e16d960fcec0737d4d56bd6968388183604051611098929190613357565b60405180910390a15050565b5f60075f8481526020019081526020015f205f015f8373ffffffffffffffffffffffffffffffffffffffff1673ffffffffffffffffffffffffffffffffffffffff1681526020019081526020015f205f9054906101000a900460ff16905092915050565b60606001805461111790612f73565b80601f016020809104026020016040519081016040528092919081815260200182805461114390612f73565b801561118e5780601f106111655761010080835404028352916020019161118e565b820191905f5260205f20905b81548152906001019060200180831161117157829003601f168201915b5050505050905090565b5f5f1b81565b6111b06111a9611626565b8383611be9565b5050565b6111bc611a32565b6111e67fe799c73ff785ac053943f5d98452f7fa0bcf54da67826fc217d6094dec75c5ee826110a4565b1561121d576040517fdf00e37300000000000000000000000000000000000000000000000000000000815260040160405180910390fd5b6112477fe799c73ff785ac053943f5d98452f7fa0bcf54da67826fc217d6094dec75c5ee8261185e565b508073ffffffffffffffffffffffffffffffffffffffff167fce83ba1e4dc2826ce628678784cccfcd212317c0367f829d3602f314a05184bb60405160405180910390a250565b611296611a32565b5f73ffffffffffffffffffffffffffffffffffffffff168173ffffffffffffffffffffffffffffffffffffffff16036112fb576040517f7ac7fa7d00000000000000000000000000000000000000000000000000000000815260040160405180910390fd5b6113257fe799c73ff785ac053943f5d98452f7fa0bcf54da67826fc217d6094dec75c5ee82611948565b5050565b61133484848461089c565b61134861133f611626565b85858585611d52565b50505050565b606061135982611567565b505f611363611efe565b90505f8151116113815760405180602001604052805f8152506113ac565b8061138b84611f8e565b60405160200161139c9291906133b8565b6040516020818303038152906040525b915050919050565b600b5481565b6113c38261099b565b6113cc8161184a565b6113d68383611948565b50505050565b5f60055f8473ffffffffffffffffffffffffffffffffffffffff1673ffffffffffffffffffffffffffffffffffffffff1681526020019081526020015f205f8373ffffffffffffffffffffffffffffffffffffffff1673ffffffffffffffffffffffffffffffffffffffff1681526020019081526020015f205f9054906101000a900460ff16905092915050565b611472611a32565b5f73ffffffffffffffffffffffffffffffffffffffff168173ffffffffffffffffffffffffffffffffffffffff16036114e2575f6040517f1e4fbdf70000000000000000000000000000000000000000000000000000000081526004016114d991906129c6565b60405180910390fd5b6114eb81611b26565b50565b5f7f7965db0b000000000000000000000000000000000000000000000000000000007bffffffffffffffffffffffffffffffffffffffffffffffffffffffff1916827bffffffffffffffffffffffffffffffffffffffffffffffffffffffff19161480611560575061155f82612058565b5b9050919050565b5f5f61157283612139565b90505f73ffffffffffffffffffffffffffffffffffffffff168173ffffffffffffffffffffffffffffffffffffffff16036115e457826040517f7e2732890000000000000000000000000000000000000000000000000000000081526004016115db9190612d08565b60405180910390fd5b80915050919050565b5f60045f8381526020019081526020015f205f9054906101000a900473ffffffffffffffffffffffffffffffffffffffff169050919050565b5f33905090565b61163a8383836001612172565b505050565b5f5f61164a84612139565b90505f73ffffffffffffffffffffffffffffffffffffffff168373ffffffffffffffffffffffffffffffffffffffff161461168b5761168a818486612331565b5b5f73ffffffffffffffffffffffffffffffffffffffff168173ffffffffffffffffffffffffffffffffffffffff1614611716576116ca5f855f5f612172565b600160035f8373ffffffffffffffffffffffffffffffffffffffff1673ffffffffffffffffffffffffffffffffffffffff1681526020019081526020015f205f82825403925050819055505b5f73ffffffffffffffffffffffffffffffffffffffff168573ffffffffffffffffffffffffffffffffffffffff161461179557600160035f8773ffffffffffffffffffffffffffffffffffffffff1673ffffffffffffffffffffffffffffffffffffffff1681526020019081526020015f205f82825401925050819055505b8460025f8681526020019081526020015f205f6101000a81548173ffffffffffffffffffffffffffffffffffffffff021916908373ffffffffffffffffffffffffffffffffffffffff160217905550838573ffffffffffffffffffffffffffffffffffffffff168273ffffffffffffffffffffffffffffffffffffffff167fddf252ad1be2c89b69c2b068fc378daa952ba7f163c4a11628f55a4df523b3ef60405160405180910390a4809150509392505050565b61185b81611856611626565b6123f4565b50565b5f61186983836110a4565b61193e57600160075f8581526020019081526020015f205f015f8473ffffffffffffffffffffffffffffffffffffffff1673ffffffffffffffffffffffffffffffffffffffff1681526020019081526020015f205f6101000a81548160ff0219169083151502179055506118db611626565b73ffffffffffffffffffffffffffffffffffffffff168273ffffffffffffffffffffffffffffffffffffffff16847f2f8788117e7eff1d82e926ec794901d17c78024a50270940304540a733656f0d60405160405180910390a460019050611942565b5f90505b92915050565b5f61195383836110a4565b15611a28575f60075f8581526020019081526020015f205f015f8473ffffffffffffffffffffffffffffffffffffffff1673ffffffffffffffffffffffffffffffffffffffff1681526020019081526020015f205f6101000a81548160ff0219169083151502179055506119c5611626565b73ffffffffffffffffffffffffffffffffffffffff168273ffffffffffffffffffffffffffffffffffffffff16847ff6391f5c32d9c69d2a47ea670b442974b53935d1edc7fd64eb21e047a839171b60405160405180910390a460019050611a2c565b5f90505b92915050565b611a3a611626565b73ffffffffffffffffffffffffffffffffffffffff16611a5861102a565b73ffffffffffffffffffffffffffffffffffffffff1614611ab757611a7b611626565b6040517f118cdaa7000000000000000000000000000000000000000000000000000000008152600401611aae91906129c6565b60405180910390fd5b565b600260085403611af5576040517f3ee5aeb500000000000000000000000000000000000000000000000000000000815260040160405180910390fd5b6002600881905550565b6001600881905550565b611b22828260405180602001604052805f815250612445565b5050565b5f60065f9054906101000a900473ffffffffffffffffffffffffffffffffffffffff1690508160065f6101000a81548173ffffffffffffffffffffffffffffffffffffffff021916908373ffffffffffffffffffffffffffffffffffffffff1602179055508173ffffffffffffffffffffffffffffffffffffffff168173ffffffffffffffffffffffffffffffffffffffff167f8be0079c531659141344cd1fd0a4f28419497f9722a3daafe3b4186f6b6457e060405160405180910390a35050565b5f73ffffffffffffffffffffffffffffffffffffffff168273ffffffffffffffffffffffffffffffffffffffff1603611c5957816040517f5b08ba18000000000000000000000000000000000000000000000000000000008152600401611c5091906129c6565b60405180910390fd5b8060055f8573ffffffffffffffffffffffffffffffffffffffff1673ffffffffffffffffffffffffffffffffffffffff1681526020019081526020015f205f8473ffffffffffffffffffffffffffffffffffffffff1673ffffffffffffffffffffffffffffffffffffffff1681526020019081526020015f205f6101000a81548160ff0219169083151502179055508173ffffffffffffffffffffffffffffffffffffffff168373ffffffffffffffffffffffffffffffffffffffff167f17307eab39ab6107e8899845ad3d59bd9653f200f220920489ca2b5937696c3183604051611d459190612880565b60405180910390a3505050565b5f8373ffffffffffffffffffffffffffffffffffffffff163b1115611ef7578273ffffffffffffffffffffffffffffffffffffffff1663150b7a02868685856040518563ffffffff1660e01b8152600401611db0949392919061342d565b6020604051808303815f875af1925050508015611deb57506040513d601f19601f82011682018060405250810190611de8919061348b565b60015b611e6c573d805f8114611e19576040519150601f19603f3d011682016040523d82523d5f602084013e611e1e565b606091505b505f815103611e6457836040517f64a0ae92000000000000000000000000000000000000000000000000000000008152600401611e5b91906129c6565b60405180910390fd5b805160208201fd5b63150b7a0260e01b7bffffffffffffffffffffffffffffffffffffffffffffffffffffffff1916817bffffffffffffffffffffffffffffffffffffffffffffffffffffffff191614611ef557836040517f64a0ae92000000000000000000000000000000000000000000000000000000008152600401611eec91906129c6565b60405180910390fd5b505b5050505050565b6060600c8054611f0d90612f73565b80601f0160208091040260200160405190810160405280929190818152602001828054611f3990612f73565b8015611f845780601f10611f5b57610100808354040283529160200191611f84565b820191905f5260205f20905b815481529060010190602001808311611f6757829003601f168201915b5050505050905090565b60605f6001611f9c84612468565b0190505f8167ffffffffffffffff811115611fba57611fb9612b63565b5b6040519080825280601f01601f191660200182016040528015611fec5781602001600182028036833780820191505090505b5090505f82602083010190505b60011561204d578080600190039150507f3031323334353637383961626364656600000000000000000000000000000000600a86061a8153600a8581612042576120416134b6565b5b0494505f8503611ff9575b819350505050919050565b5f7f80ac58cd000000000000000000000000000000000000000000000000000000007bffffffffffffffffffffffffffffffffffffffffffffffffffffffff1916827bffffffffffffffffffffffffffffffffffffffffffffffffffffffff1916148061212257507f5b5e139f000000000000000000000000000000000000000000000000000000007bffffffffffffffffffffffffffffffffffffffffffffffffffffffff1916827bffffffffffffffffffffffffffffffffffffffffffffffffffffffff1916145b806121325750612131826125b9565b5b9050919050565b5f60025f8381526020019081526020015f205f9054906101000a900473ffffffffffffffffffffffffffffffffffffffff169050919050565b80806121aa57505f73ffffffffffffffffffffffffffffffffffffffff168273ffffffffffffffffffffffffffffffffffffffff1614155b156122dc575f6121b984611567565b90505f73ffffffffffffffffffffffffffffffffffffffff168373ffffffffffffffffffffffffffffffffffffffff161415801561222357508273ffffffffffffffffffffffffffffffffffffffff168173ffffffffffffffffffffffffffffffffffffffff1614155b8015612236575061223481846113dc565b155b1561227857826040517fa9fbf51f00000000000000000000000000000000000000000000000000000000815260040161226f91906129c6565b60405180910390fd5b81156122da57838573ffffffffffffffffffffffffffffffffffffffff168273ffffffffffffffffffffffffffffffffffffffff167f8c5be1e5ebec7d5bd14f71427d1e84f3dd0314c0f7b2291e5b200ac8c7c3b92560405160405180910390a45b505b8360045f8581526020019081526020015f205f6101000a81548173ffffffffffffffffffffffffffffffffffffffff021916908373ffffffffffffffffffffffffffffffffffffffff16021790555050505050565b61233c838383612622565b6123ef575f73ffffffffffffffffffffffffffffffffffffffff168373ffffffffffffffffffffffffffffffffffffffff16036123b057806040517f7e2732890000000000000000000000000000000000000000000000000000000081526004016123a79190612d08565b60405180910390fd5b81816040517f177e802f0000000000000000000000000000000000000000000000000000000081526004016123e69291906134e3565b60405180910390fd5b505050565b6123fe82826110a4565b6124415780826040517fe2517d3f00000000000000000000000000000000000000000000000000000000815260040161243892919061350a565b60405180910390fd5b5050565b61244f83836126e2565b61246361245a611626565b5f858585611d52565b505050565b5f5f5f90507a184f03e93ff9f4daa797ed6e38ed64bf6a1f01000000000000000083106124c4577a184f03e93ff9f4daa797ed6e38ed64bf6a1f01000000000000000083816124ba576124b96134b6565b5b0492506040810190505b6d04ee2d6d415b85acef81000000008310612501576d04ee2d6d415b85acef810000000083816124f7576124f66134b6565b5b0492506020810190505b662386f26fc10000831061253057662386f26fc100008381612526576125256134b6565b5b0492506010810190505b6305f5e1008310612559576305f5e100838161254f5761254e6134b6565b5b0492506008810190505b612710831061257e576127108381612574576125736134b6565b5b0492506004810190505b606483106125a15760648381612597576125966134b6565b5b0492506002810190505b600a83106125b0576001810190505b80915050919050565b5f7f01ffc9a7000000000000000000000000000000000000000000000000000000007bffffffffffffffffffffffffffffffffffffffffffffffffffffffff1916827bffffffffffffffffffffffffffffffffffffffffffffffffffffffff1916149050919050565b5f5f73ffffffffffffffffffffffffffffffffffffffff168373ffffffffffffffffffffffffffffffffffffffff16141580156126d957508273ffffffffffffffffffffffffffffffffffffffff168473ffffffffffffffffffffffffffffffffffffffff16148061269a575061269984846113dc565b5b806126d857508273ffffffffffffffffffffffffffffffffffffffff166126c0836115ed565b73ffffffffffffffffffffffffffffffffffffffff16145b5b90509392505050565b5f73ffffffffffffffffffffffffffffffffffffffff168273ffffffffffffffffffffffffffffffffffffffff1603612752575f6040517f64a0ae9200000000000000000000000000000000000000000000000000000000815260040161274991906129c6565b60405180910390fd5b5f61275e83835f61163f565b90505f73ffffffffffffffffffffffffffffffffffffffff168173ffffffffffffffffffffffffffffffffffffffff16146127d0575f6040517f73c6ac6e0000000000000000000000000000000000000000000000000000000081526004016127c791906129c6565b60405180910390fd5b505050565b5f604051905090565b5f5ffd5b5f5ffd5b5f7fffffffff0000000000000000000000000000000000000000000000000000000082169050919050565b61281a816127e6565b8114612824575f5ffd5b50565b5f8135905061283581612811565b92915050565b5f602082840312156128505761284f6127de565b5b5f61285d84828501612827565b91505092915050565b5f8115159050919050565b61287a81612866565b82525050565b5f6020820190506128935f830184612871565b92915050565b5f81519050919050565b5f82825260208201905092915050565b8281835e5f83830152505050565b5f601f19601f8301169050919050565b5f6128db82612899565b6128e581856128a3565b93506128f58185602086016128b3565b6128fe816128c1565b840191505092915050565b5f6020820190508181035f83015261292181846128d1565b905092915050565b5f819050919050565b61293b81612929565b8114612945575f5ffd5b50565b5f8135905061295681612932565b92915050565b5f60208284031215612971576129706127de565b5b5f61297e84828501612948565b91505092915050565b5f73ffffffffffffffffffffffffffffffffffffffff82169050919050565b5f6129b082612987565b9050919050565b6129c0816129a6565b82525050565b5f6020820190506129d95f8301846129b7565b92915050565b6129e8816129a6565b81146129f2575f5ffd5b50565b5f81359050612a03816129df565b92915050565b5f5f60408385031215612a1f57612a1e6127de565b5b5f612a2c858286016129f5565b9250506020612a3d85828601612948565b9150509250929050565b5f5f5f60608486031215612a5e57612a5d6127de565b5b5f612a6b868287016129f5565b9350506020612a7c868287016129f5565b9250506040612a8d86828701612948565b9150509250925092565b5f819050919050565b612aa981612a97565b8114612ab3575f5ffd5b50565b5f81359050612ac481612aa0565b92915050565b5f60208284031215612adf57612ade6127de565b5b5f612aec84828501612ab6565b91505092915050565b612afe81612a97565b82525050565b5f602082019050612b175f830184612af5565b92915050565b5f5f60408385031215612b3357612b326127de565b5b5f612b4085828601612ab6565b9250506020612b51858286016129f5565b9150509250929050565b5f5ffd5b5f5ffd5b7f4e487b71000000000000000000000000000000000000000000000000000000005f52604160045260245ffd5b612b99826128c1565b810181811067ffffffffffffffff82111715612bb857612bb7612b63565b5b80604052505050565b5f612bca6127d5565b9050612bd68282612b90565b919050565b5f67ffffffffffffffff821115612bf557612bf4612b63565b5b612bfe826128c1565b9050602081019050919050565b828183375f83830152505050565b5f612c2b612c2684612bdb565b612bc1565b905082815260208101848484011115612c4757612c46612b5f565b5b612c52848285612c0b565b509392505050565b5f82601f830112612c6e57612c6d612b5b565b5b8135612c7e848260208601612c19565b91505092915050565b5f60208284031215612c9c57612c9b6127de565b5b5f82013567ffffffffffffffff811115612cb957612cb86127e2565b5b612cc584828501612c5a565b91505092915050565b5f60208284031215612ce357612ce26127de565b5b5f612cf0848285016129f5565b91505092915050565b612d0281612929565b82525050565b5f602082019050612d1b5f830184612cf9565b92915050565b5f60ff82169050919050565b612d3681612d21565b8114612d40575f5ffd5b50565b5f81359050612d5181612d2d565b92915050565b5f60208284031215612d6c57612d6b6127de565b5b5f612d7984828501612d43565b91505092915050565b612d8b81612866565b8114612d95575f5ffd5b50565b5f81359050612da681612d82565b92915050565b5f5f60408385031215612dc257612dc16127de565b5b5f612dcf858286016129f5565b9250506020612de085828601612d98565b9150509250929050565b5f67ffffffffffffffff821115612e0457612e03612b63565b5b612e0d826128c1565b9050602081019050919050565b5f612e2c612e2784612dea565b612bc1565b905082815260208101848484011115612e4857612e47612b5f565b5b612e53848285612c0b565b509392505050565b5f82601f830112612e6f57612e6e612b5b565b5b8135612e7f848260208601612e1a565b91505092915050565b5f5f5f5f60808587031215612ea057612e9f6127de565b5b5f612ead878288016129f5565b9450506020612ebe878288016129f5565b9350506040612ecf87828801612948565b925050606085013567ffffffffffffffff811115612ef057612eef6127e2565b5b612efc87828801612e5b565b91505092959194509250565b5f5f60408385031215612f1e57612f1d6127de565b5b5f612f2b858286016129f5565b9250506020612f3c858286016129f5565b9150509250929050565b7f4e487b71000000000000000000000000000000000000000000000000000000005f52602260045260245ffd5b5f6002820490506001821680612f8a57607f821691505b602082108103612f9d57612f9c612f46565b5b50919050565b5f606082019050612fb65f8301866129b7565b612fc36020830185612cf9565b612fd060408301846129b7565b949350505050565b5f81905092915050565b50565b5f612ff05f83612fd8565b9150612ffb82612fe2565b5f82019050919050565b5f61300f82612fe5565b9150819050919050565b5f819050815f5260205f209050919050565b5f6020601f8301049050919050565b5f82821b905092915050565b5f600883026130757fffffffffffffffffffffffffffffffffffffffffffffffffffffffffffffffff8261303a565b61307f868361303a565b95508019841693508086168417925050509392505050565b5f819050919050565b5f6130ba6130b56130b084612929565b613097565b612929565b9050919050565b5f819050919050565b6130d3836130a0565b6130e76130df826130c1565b848454613046565b825550505050565b5f5f905090565b6130fe6130ef565b6131098184846130ca565b505050565b5b8181101561312c576131215f826130f6565b60018101905061310f565b5050565b601f8211156131715761314281613019565b61314b8461302b565b8101602085101561315a578190505b61316e6131668561302b565b83018261310e565b50505b505050565b5f82821c905092915050565b5f6131915f1984600802613176565b1980831691505092915050565b5f6131a98383613182565b9150826002028217905092915050565b6131c282612899565b67ffffffffffffffff8111156131db576131da612b63565b5b6131e58254612f73565b6131f0828285613130565b5f60209050601f831160018114613221575f841561320f578287015190505b613219858261319e565b865550613280565b601f19841661322f86613019565b5f5b8281101561325657848901518255600182019150602085019450602081019050613231565b86831015613273578489015161326f601f891682613182565b8355505b6001600288020188555050505b505050505050565b5f6040820190508181035f8301526132a081856128d1565b905081810360208301526132b481846128d1565b90509392505050565b7f4e487b71000000000000000000000000000000000000000000000000000000005f52602160045260245ffd5b600281106132fb576132fa6132bd565b5b50565b5f81905061330b826132ea565b919050565b5f61331a826132fe565b9050919050565b61332a81613310565b82525050565b5f6040820190506133435f830185613321565b6133506020830184613321565b9392505050565b5f60408201905061336a5f830185612cf9565b6133776020830184612cf9565b9392505050565b5f81905092915050565b5f61339282612899565b61339c818561337e565b93506133ac8185602086016128b3565b80840191505092915050565b5f6133c38285613388565b91506133cf8284613388565b91508190509392505050565b5f81519050919050565b5f82825260208201905092915050565b5f6133ff826133db565b61340981856133e5565b93506134198185602086016128b3565b613422816128c1565b840191505092915050565b5f6080820190506134405f8301876129b7565b61344d60208301866129b7565b61345a6040830185612cf9565b818103606083015261346c81846133f5565b905095945050505050565b5f8151905061348581612811565b92915050565b5f602082840312156134a05761349f6127de565b5b5f6134ad84828501613477565b91505092915050565b7f4e487b71000000000000000000000000000000000000000000000000000000005f52601260045260245ffd5b5f6040820190506134f65f8301856129b7565b6135036020830184612cf9565b9392505050565b5f60408201905061351d5f8301856129b7565b61352a6020830184612af5565b939250505056fea26469706673582212207a525186399d1f6137689968f62f680b01243cebf663580bbc6b2ea3a6cfb11864736f6c634300081e0033","linkReferences":{}},"methodIdentifiers":{"DEFAULT_ADMIN_ROLE()":"a217fddf","WHITELISTED_ROLE()":"7a3226ec","addWhitelistedUser(address)":"b231e25d","approve(address,uint256)":"095ea7b3","balanceOf(address)":"70a08231","burn(uint256)":"42966c68","getApproved(uint256)":"081812fc","getRoleAdmin(bytes32)":"248a9ca3","grantRole(bytes32,address)":"2f2ff15d","hasRole(bytes32,address)":"91d14854","isApprovedForAll(address,address)":"e985e9c5","mint(address)":"6a627842","mintedCount()":"cf721b15","name()":"06fdde03","owner()":"8da5cb5b","ownerOf(uint256)":"6352211e","removeWhitelistedUser(address)":"b7b1b8e9","renounceOwnership()":"715018a6","renounceRole(bytes32,address)":"36568abe","revokeRole(bytes32,address)":"d547741f","safeTransferFrom(address,address,uint256)":"42842e0e","safeTransferFrom(address,address,uint256,bytes)":"b88d4fde","setApprovalForAll(address,bool)":"a22cb465","setBaseURI(string)":"55f804b3","setPrice(uint256)":"91b7f5ed","setSalePhase(uint8)":"7ad59431","supportsInterface(bytes4)":"01ffc9a7","symbol()":"95d89b41","tokenURI(uint256)":"c87b56dd","transferFrom(address,address,uint256)":"23b872dd","transferOwnership(address)":"f2fde38b","withdraw()":"3ccfd60b"},"id":2}